:0A0000000C9487000C94B4000C94DB
:10000A0000000C9400000C9400000C9400000C9466
:10001A0000000C9400000C9400000C9400000C9456
:10002A0000000C94E3000C9400000C9400000C9463
:10003A0000000C9400000C9400000C9400000C9436
:10004A0000000C9400000C9400001027E8036400E0
:10005A000A00010000100001100001000000000069
:10006A000000000000000000434C4F434B204D4F5E
:10007A0044452020202020204E6F773A20202569F1
:10008A003A25693A256920200053544F5020574198
:10009A00544348204D4F4445204E6F773A2020253F
:1000AA00693A25693A25692020004241434B204399
:1000BA004F554E5445522020202020202020202514
:1000CA00693A25693A25692020202000414C41528D
:1000DA004D204D4F444520202020202061743A2590
:1000EA00693A256920454E3D25692020000080C0D7
:1000FA000100020066000A00040068000200920281
:10010A00F8000000F894EE27ECBBF1E0FBBFEBBF70
:10011A00E5BF8DE0A2E0BB27ED938A95E9F780E081
:10012A0098E0A0E6ED930197E9F7EAEFF0E0859110
:10013A009591009761F0A591B59105901590BF0131
:10014A00F00105900D920197E1F7FB01F0CFEFE581
:10015A00EDBFE8E0EEBFC0E6D2E00C941401EA93EA
:10016A00EFB7EA93989B02C0442009F001C0539468
:10017A00999B04C0442011F49A9B01C002C0E1E09B
:10018A0018C09A9B04C0442011F4999B01C002C074
:10019A00E2E00FC09B9B02C0442009F002C0E3E0EA
:1001AA0008C09A9B04C0999B02C0442009F002C06F
:1001BA00E4E04E2EE991EFBFE99118950A92AA93CD
:1001CA00BA93EA93FA93EFB7EA93F60131966F017D
:1001DA00E2E4FFE0EC15FD05D1F4CC24DD24F301C3
:1001EA0031963F0120FE04C0A0E6B2E00E947005ED
:1001FA0021FE04C0A6E8B2E00E9476050E947C05B2
:10020A000E94160624F4ACE8B2E00E947605E99151
:10021A00EFBFF991E991B991A99109901895E0E098
:10022A00EABBEBBBE0E8E7BBE0E0E8BBE4BBE5BB6D
:10023A00E1BBE2BBE2E0E3BFE0E0E2BFECBFEFBD5F
:10024A00EEBDEDBDECBDE7BDE6BDEBBDEABDE9BD6A
:10025A00E8BDE2BDE5BDE4BDE3BDE1E0E9BFEBB762
:10026A00E064EBBFE3E0E5BFE0E0E4BFE0E4EABF5F
:10027A00E0E0EAB9E0E8E8B9E0E0E0BFE6B9EDB904
:10028A00E6BFA0E10E9428050E94E9047894E4E010
:10029A00E51508F45524EBE3F0E0E615F70529F433
:1002AA00F40131964F0166247724EBE3F0E0E81578
:1002BA00F90529F4F50131965F0188249924E8E1CA
:1002CA00F0E0EA15FB0511F4AA24BB2420FE29C09C
:1002DA00A0916002B0916102DB9749F4A2E6B2E014
:1002EA000E947005E0E0E0936002E0936102A09151
:1002FA006202B0916302DB9749F4A4E6B2E00E947D
:10030A007005E0E0E0936202E0936302A091640268
:10031A00B0916502589729F4E0E0E0936402E09313
:10032A00650221FE0AC00E94810531F40E948705F8
:10033A0019F40E948D0509F001C01DC0A091870221
:10034A00AA2352F4A8E8B2E00E947605EBE3F0E0B3
:10035A00E0938602F0938702A0918902AA2352F4BD
:10036A00EBE3F0E0E0938802F0938902AAE8B2E0B6
:10037A000E94760510C021FE09C00E94810531F451
:10038A000E94870519F40E948D0509F004C00E9495
:10039A00930521F8C79A0E947C0511970CF4C79817
:1003AA00A0918E02B0918F028A169B0649F4A09101
:1003BA009002B0919102AA16BB0611F422FC01C068
:1003CA0004C00E94930522F8C79A0E947C051197DF
:1003DA000CF4C798552051F50E949E05E2E7F0E01B
:1003EA00FA93EA93F5010E94A805F4010E94A80570
:1003FA00F3010E94A8050E94AD0531F4F40131967B
:10040A004F016624772410C0E2E0E41521F4F501D7
:10041A0031965F0109C0E3E0E41539F466247724D4
:10042A0088249924AA24BB244424AFC0E1E0E5151A
:10043A00C1F50E949E05E3E9F0E0FA93EA93E091A0
:10044A006402F09165020E94A805E0916202F091AF
:10045A0063020E94A805E0916002F09161020E9485
:10046A00A8050E94AD0519F4689420F818C0E2E0C6
:10047A00E41519F4E89420F812C0E3E0E41581F4D5
:10048A00E89420F8E0E0E0936002E0936102E093F0
:10049A006202E0936302E0936402E09365024424FB
:1004AA0074C0E2E0E51509F070C00E949E05E4EB15
:1004BA00F0E0FA93EA93E0918A02F0918B020E94AB
:1004CA00A805E0918802F09189020E94A805E091AE
:1004DA008602F09187020E94A8050E94AD0589F460
:1004EA00A8E8B2E00E9470054424A0918802B09165
:1004FA008902DC972CF0E0E0E0938802E09389021D
:10050A0044C0E2E0E41589F4AAE8B2E00E9470056A
:10051A004424A0918A02B0918B0259972CF0E0E012
:10052A00E0938A02E0938B0230C0E3E0E41579F4A9
:10053A00E0E0E0938602E0938702E0938802E0938A
:10054A008902E0938A02E0938B02E8941CC0E4E0FB
:10055A00E415D9F40E94810531F40E94870519F443
:10056A000E948D0509F008C0C79AE2E0F0E0E09326
:10057A008C02F0938D0208C0A0E021FCA1E0E1E02A
:10058A00EA270E941A0621F84424E3E0E51509F057
:10059A0045C00E949E05E6EDF0E0FA93EA93E091E9
:1005AA009002F09191020E94A805E0918E02F091CA
:1005BA008F020E94A805E0E022FCE1E0FF276627FF
:1005CA0077270E9411060E94AD0529F4AEE8B2E031
:1005DA000E94700522C0E2E0E41529F4A0E9B2E025
:1005EA000E9470051AC0E3E0E41561F4E89422F869
:1005FA00E0E0E0938E02E0938F02E0939002E093B2
:10060A0091020BC0E4E0E41549F4A0E022FCA1E069
:10061A00E1E0EA270E941A0622F84424442437CE4D
:10062A00FFCFBA93AA931A930A93AA81BB8112960F
:10063A000E940906309729F1AA81BB8114960E946B
:10064A0009068F01309761F00230E0E01E0780F062
:10065A00F80131978F01AA81BB811496ED93FC931F
:10066A00AA81BB8112960E9470053197AC81A08342
:10067A00AA81BB810E940906FF2312F00E9470051D
:10068A0006C0AA81BB81EFEFFFEFED93FC931981BE
:10069A00088125960895BA93AA9326970E941F0661
:1006AA0010E0AC85BD85E0E0F0E0ED93FC93EA89CB
:1006BA00FB893196EA8BFB8B3197E4912E2FE03040
:1006CA0009F415C1E12FE03039F4253211F411E0B3
:1006DA0002C00E94B8050AC1E130A9F4253219F412
:1006EA000E94B80502C112E040E000E02D3211F488
:1006FA0001E0FCC02B3211F44BE2F8C0203211F4B5
:10070A0040E2F4C002C0E23039F450E013E0203392
:10071A0011F40068EBC003C0E33009F0E7C02033EE
:10072A0010F02A3308F007C0AAE05A9F502DE22F92
:10073A00E0535E0FDBC0E22FE33649F40E94BF05A7
:10074A00E889F989A481AA930E94C505CEC0E33736
:10075A0041F40E94BF050E94CB050E9457051E2F37
:10076A000AC0E03761F40E94BF050E94CB050E94CF
:10077A0063051E2F086002600F7730E034C0E4364C
:10078A0011F0E93611F4046002C0E53731F4E4E50A
:10079A00F0E0EE83FF8315E00CC0E83511F4086041
:1007AA0003C0E83709F0A1C0EEE5F0E0EE83FF836D
:1007BA0014E002FF14C00E94BF050E94D505AB8554
:1007CA00AA233AF4EA85FB850E940006EA87FB879A
:1007DA004DE2403011F01F5F01C00B7F04C00E9440
:1007EA00BF050E94D50500FD11C0151778F407FF53
:1007FA0008C002FF04C00B7F242F115001C020E360
:10080A0001C020E20E94B8055150EFCF312F01FFFD
:10081A0017C03030A1F003FF06C0EE81FF81259199
:10082A00EE83FF8305C0AE81BF812D91AE83BF8366
:10083A000E94B805503009F051503150EACF4BC0F0
:10084A0020E3EE81FF810E940D06E887F987EE8199
:10085A00FF813296EE83FF83E885F985AA85BB85F9
:10086A00AE17BF0750F02F5FA885B985EA85FB85CB
:10087A00EA1BFB0BEA87FB87EFCF2A3328F003FF3B
:10088A0002C0295F01C0295D04FD1AC0213320F48A
:10089A00A885B985119709F409C0531710F000FF0C
:1008AA0001C013C020E207FF0BC020E3006102FF72
:1008BA0007C00B7F4A930E94C505503009F051507A
:1008CA000E94B805503009F051503150A885B985B9
:1008DA00129708F0B5CF00FF08C0503031F05150E0
:1008EA00E0E2EA930E94C505F8CF10E0E0CEAC85BD
:1008FA00BD850E9409060E94260664960895FF9205
:10090A00F82E26970E9421060E94DD05309719F4D9
:10091A00EFEFFFEF23C0DE0116960E94FC058D0162
:10092A000E94DD05EE83FF83E0E0E887E987DE01C8
:10093A001A960E94FC050E940906FA93EA931A93F2
:10094A000A93E6E1F3E0FA93EA93DE011A96A3DE4C
:10095A009F01AE81BF81E0E0EC93F9010E94280675
:10096A002A96FF900895AA93EBB3EF70AE2FE88111
:10097A00E07FEA2BEBBB8DE08A95F1F7DA9A8DE0FE
:10098A008A95F1F7DA988DE08A95F1F789C0AA93EA
:10099A00A881E9DFE881E295E883A881E4DF85E8B8
:1009AA008A95F1F77DC0AA93E881F0E0EE56FD4FF3
:1009BA00E081A981AE0FEBDFE981E0939602E8813D
:1009CA00E093970222960895A2E00E94E405ACE023
:1009DA00DEDFA1E00E94E405E0E0E0939702E09305
:1009EA0096020895AA93A881AA3031F0E09198025C
:1009FA00A0919602AE1760F0E0E0EA93A091970208
:100A0A00AF5FA0939702CFDFA881AA3009F448C04C
:100A1A00E0919602EF5FE0939602D89AA881B7DF39
:100A2A00D8983EC0BA93AA931A93A981BA81ED9134
:100A3A00A983BA831E2FE03019F0A12FD3DFF5CF97
:100A4A00188123960895AA93EAB3E06FEABBD29A73
:100A5A00D09AD19ADA98D898D998E881E0939802EE
:100A6A00E058E0939402E881E054E0939502A4E10F
:100A7A00B0E00E94F2050E94EA050E94EA050E947F
:100A8A00EA05A0E270DF88EC90E00197F1F7A8E2AE
:100A9A007EDFA4E07CDFA5E87ADFA6E078DF94DFDA
:100AAA0021960895BA93AA93A991B991EE27FF279F
:100ABA006D91662311F03196FBCF0895BA93AA93EC
:100ACA00AA27BB27E991F9910590002011F0119608
:100ADA00FBCFFD010895ED91FD913196FE93EE93C2
:100AEA000895ED91FD913197FE93EE930895A091AB
:100AFA008C02B0918D020895A0918602B09187026E
:100B0A0010970895A0918802B091890210970895CC
:100B1A00A0918A02B0918B0210970895E0918C02FD
:100B2A00F0918D027496E0938C02F0938D02E89412
:100B3A000895E0E0EA93A0E00E94D804E6E6F2E035
:100B4A00FA93EA9308950E9404060E9411060895F2
:100B5A008CE00E9484046096A6E6B2E00E94170523
:100B6A00E1E0E41508952A93AD85BE85EF85F889FD
:100B7A0009950895E889F9893497E88BF98B0895DE
:100B8A00AD85BE85EF85F88909950895A889B98943
:100B9A0014960E940906EE83FF83AE81BF810895F1
:100BAA00A889B98914960E940906EA87FB870895DD
:100BBA00DE011C960E94FC050E94090608950E9407
:100BCA00CC04A3E0B0E00C94F205A0E30E94B804C0
:100BDA0088EC90E00197F1F70895109639F080EDCE
:100BEA0097E00197F1F7A8951197C9F7089500249E
:100BFA00AF0DB01D0895F195E195F04008956F2F5E
:100C0A00660F660B762F0895ED91FC911197089562
:100C1A000590F491E02D08957A936A93FA93EA93F2
:100C2A00089500240A160B060895E894EE2309F0A5
:100C3A00689408955A934A933A932A931A930A9373
:100C4A0008955D814C813B812A811981088108952B
:00000001FF
